:020000040000FA
:201000004C9A104CD2104C0C104C1410A5162901F0FAA51748A5162940F0FA68297F851747
:2010200060EA1860081800800486C3900586C391C260B1C2A000607B117D11F1111E124C65
:20104000121612C3138B1788179C132415B813C313C3130A170E17D216E616321783137364
:201060001375168A168716A0160F16E6122813C3133A14CB13D012D812A814BA12C313C398
:2010800013CD14981796172F15BF105913D2106417FE162041542080B917A9008570857256
:2010A000A91A85718573A001B172AA49FF9172D172088A9172E672D002E67328F0EA88D809
:2010C000A5706D281085749865718575989170C89170A57285C78576A57385C8857720AC08
:2010E00014AD9810857AAD9910857BA9FF85C1A90185C2A90085C0A20086BECA9AD8201B08
:20110000132009114CFD108365C930B07DC908900C0AAABD341048BD331048084065C1AA51
:20112000B1C148BD000191C1689D00016020AC14A921200910A57A38ED9810AAA57BED9960
:201140001020C413A5BEF012A993857AA910857B20BA12A678A57920C413A9072009102007
:20116000AC14A57685C7A57785C84CE110A2FBE4C190BAA6C1E6C1E6C11860C6BDA5BDF014
:20118000ACA5BC857AA5BD857B60C940B04348201B136D981085BC684829076D991085BD61
:2011A000682908D0DCA5BCA67A857A86BCA5BDA67B857B86BDA5C7E90185C7B002C6C8C5BB
:2011C00074A5C8E57590AAA5BC91C7C8A5BD91C760484A4A4A4A290EAA68C960291FB00223
:2011E00009E018F007657A85BC98657B85BD4C1311A57C85B8A57D85B9203E12202D1251CF
:201200007AAA201B138AF0F10AF012A5B8857CA5B9857D4C7D11203E12C90DD0F660203E83
:2012200012C95BB0EEC94190EA0A20A913A000B17CE67CD002E67DC90D1860202D12B17C32
:20124000C920F0F7C93A181002C93060203E1290C284BC84BDA5BCA6BD06BC26BD06BC26A4
:20126000BD1865BC85BC8A65BD06BC2A85BD202D12290F65BC85BC9865BD85BD203E12B048
:20128000D44CA213202415A5BC05BDF048A570857CA571857D208F13F012A578C5BCA57917
:2012A000E5BDB008202D12D0FB4C9512A57845BCD004A57945BD6020BF12201B1310F8E618
:2012C000BF30034C0910C6BF60C922F0FB20BF12202D12D0F44C2D11A92020BF12A5BF2917
:2012E0008730E5D0F360A2FA206F11E6C1E6C1E6C138BD0301FD00019D0001BD0401FD01A9
:2013000001500449800901300DD0051D0001F0035E02015E02015E0201900CA000B17AE612
:201320007AD002E67B090060A5BEF028202D12D0FB208F13F01B206E13202110B009A5C411
:20134000857AA5C5857B60AD9810857AAD9910857B4C2D1185BF4C6211A570857CA57185DC
:201360007D208F13F0EBA57A85C4A57B85C5A90185BE60208412F0BEA5BC8578A5BD857912
:201380004C2D11204617203D17208D12D0EA60202D128578202D12857905786020241520EA
:2013A000A213A5BD20A913A5BCA6C1CA9D000186C1E4C0D00E4C2D11A6C1E0FF10F7BD00AD
:2013C00001E6C16085BD86BC4CDD13A6C1BD01011008207516A92D20BF12202415A91F85EF
:2013E000B885BAA92A85B985BBA6BCA4BD38E6B88AE910AA98E927A8B0F4C6B98A69E8AAE7
:20140000986903A890F48A38E6BAE964B0FA8810F6C6BB690A90FA093085BCA92085BDA210
:20142000FB86C3B5BD05BDC920F009A03084BD05BD20BF12A6C3E8D0E860A57D48A57C4852
:20144000A570857CA571857DA574A675208014F003208014A57C38E5B6A57DE5B7B042200B
:201460008F13F03DA678A57920C413A92020BF12202110B02C202D12D0F320A8144C5414D1
:2014800085B6E6B6D001E886B7A4C1C0FFF018208412A57CA67D38E902B001CA857C4C91DD
:2014A0001768857C68857D60A5BF30FBA90D200910AD2610297F85BFF00720AD17C6BFD065
:2014C000F9A90A4CAA17AC271084BFB00DA900857C85C0847DE67D20A21345808580200658
:2014E00010A000A6C0297FF0F1C97FF0EDC913F0D8C90AF0D1CD2510F009CD2410D00AE03A
:2015000000D017A67C84BFA90DE4C1D008A90720BF124CDA149D0001E8E8CA86C0C90DD04D
:20152000B920A81420B81385BC20B81385BD60201F172084120820921485B886B9A5BC8521
:20154000B6A5BD85B7A20028D00B208F13CACACA202D12D0FA84788479201F17A90DD17CF7
:20156000F011E8E8E8E8C8D17CD0FAA5B68578A5B78579A5B885BCA5B985BD18A0008AF0C9
:201580006E1029657E85B8A57FE90085B9B17E91B8A67EE474D006A57FC575F04AE8867EEB
:2015A000D002E67FE6B8D0E5E6B9D0E1657485B8857E98657585B9857FA57EE5C7A57FE5AC
:2015C000C89005C67A4C2D11B174917EA674D002C675C674A67ED002C67FCA867EE4BCD0D6
:2015E000E7A67FE4BDD0E1A5B88574A5B98575A5780579F017A57891BCC8A57991BCC88454
:20160000B6202D1208A4B691BC28D0F24CE110206D11BD03012980F002A9FF85BC85BD4872
:201620007D02019D020168487D03019D0301685D010185BB1003207716A011BD00011D0164
:2016400001D0034C2D1138A5BCFD000148A5BDFD01014845BD300A6885BD6885BC384C642D
:20166000166868183E02013E030126BC26BD88D0D5A5BB1011A6C13898FD00019D0001980B
:20168000FD01019D010160207516206D11BD00017D02019D0201BD01017D03019D030160E4
:2016A000206D11A010BD020185BCBD030185BD1E02013E030126BC26BD901318BD02017DB8
:2016C00000019D0201BD03017D01019D030188D0DE6020B813AAB50048B501C6C1A6C19D1F
:2016E0000001684CA913A2FE206F11BD010148BD00014820B813AA689500689501602046D6
:2017000017A5BC857AA5BD857B60A27CD002A27EB501C901D009A57C857EA57D857F60A5D8
:201720007CA47E847C857EA57DA47F847D857FA00060A57885BCA57985BD20B511A5C78529
:2017400076A5C8857760B1C785BC205117B1C785BDE6C7D002E6C8A572C5C7A573E5C8B00A
:20176000E44C2D11206D1785BC984CA413202415A5BC85B6202415A5BD85B7A4BC202415D6
:20178000A6B7A5B6186CBC00208B17201B134CA913867DE00060A00284BCA02984BDA0006A
:2017A000B1BCC908D0034C811160200910A9FF2C26103002A9004C0910243A912710E159F7
:2017C000C52A5610112C8B4C45D4A080BD30BCE0131D9447CF8854CF30BCE0101116805383
:2017E00055C230BCE014169050D283494ED4E57188BBE11D8FA221586F83AC225583BA2485
:2018000093E0231D30BC20489149C630BC313430BC84544845CE1C1D380D9A494E5055D489
:20182000A010E7243F209127E15981AC30BC131182AC4DE01D895245545552CEE0151D8567
:20184000454EC4E02D984C4953D4EC24000000000A801F2493231D30BCE15080AC598552A7
:2018600055CE380A86434C4541D22B845245CD1DA080BD381485AD30D3176481AB30D385D9
:20188000AB30D3185A85AD30D319542F30E285AA30E21A5A85AF30E21B542F98524EC40AA6
:2018A0008080120A09291A0A1A851813098012010B313061720B04020305031B1A190B0993
:2018C000060A00001C172F8F5553D280A830BC312A312A80A92E2FA2122FC12F80A830BC56
:2018E00080A92F83AC38BC0B2F80A8522F84BD09022F8EBC84BD09932F84BE09052F0991A0
:131900002F80BE84BD09062F84BC09952F09042F0000009F
:00000001FF
